{
  "address": "0x048e105244da155131fe30687175bCe5b77f5705",
  "abi": [
    {
      "inputs": [],
      "stateMutability": "nonpayable",
      "type": "constructor"
    },
    {
      "inputs": [
        {
          "internalType": "address",
          "name": "target",
          "type": "address"
        }
      ],
      "name": "AddressEmptyCode",
      "type": "error"
    },
    {
      "inputs": [
        {
          "internalType": "address",
          "name": "account",
          "type": "address"
        }
      ],
      "name": "AddressInsufficientBalance",
      "type": "error"
    },
    {
      "inputs": [],
      "name": "FailedInnerCall",
      "type": "error"
    },
    {
      "inputs": [
        {
          "internalType": "address",
          "name": "owner",
          "type": "address"
        }
      ],
      "name": "OwnableInvalidOwner",
      "type": "error"
    },
    {
      "inputs": [
        {
          "internalType": "address",
          "name": "account",
          "type": "address"
        }
      ],
      "name": "OwnableUnauthorizedAccount",
      "type": "error"
    },
    {
      "inputs": [
        {
          "internalType": "address",
          "name": "token",
          "type": "address"
        }
      ],
      "name": "SafeERC20FailedOperation",
      "type": "error"
    },
    {
      "anonymous": false,
      "inputs": [
        {
          "indexed": true,
          "internalType": "address",
          "name": "tokenIn",
          "type": "address"
        },
        {
          "indexed": true,
          "internalType": "address",
          "name": "tokenOut",
          "type": "address"
        },
        {
          "indexed": false,
          "internalType": "uint256",
          "name": "rate",
          "type": "uint256"
        }
      ],
      "name": "ExchangeRateSet",
      "type": "event"
    },
    {
      "anonymous": false,
      "inputs": [
        {
          "indexed": true,
          "internalType": "address",
          "name": "previousOwner",
          "type": "address"
        },
        {
          "indexed": true,
          "internalType": "address",
          "name": "newOwner",
          "type": "address"
        }
      ],
      "name": "OwnershipTransferred",
      "type": "event"
    },
    {
      "anonymous": false,
      "inputs": [
        {
          "indexed": true,
          "internalType": "address",
          "name": "tokenIn",
          "type": "address"
        },
        {
          "indexed": true,
          "internalType": "address",
          "name": "tokenOut",
          "type": "address"
        },
        {
          "indexed": false,
          "internalType": "uint256",
          "name": "amountIn",
          "type": "uint256"
        },
        {
          "indexed": false,
          "internalType": "uint256",
          "name": "amountOut",
          "type": "uint256"
        }
      ],
      "name": "SwapExecuted",
      "type": "event"
    },
    {
      "inputs": [
        {
          "internalType": "address",
          "name": "",
          "type": "address"
        },
        {
          "internalType": "address",
          "name": "",
          "type": "address"
        }
      ],
      "name": "exchangeRates",
      "outputs": [
        {
          "internalType": "uint256",
          "name": "",
          "type": "uint256"
        }
      ],
      "stateMutability": "view",
      "type": "function"
    },
    {
      "inputs": [
        {
          "internalType": "bytes",
          "name": "commands",
          "type": "bytes"
        },
        {
          "internalType": "bytes[]",
          "name": "inputs",
          "type": "bytes[]"
        }
      ],
      "name": "execute",
      "outputs": [],
      "stateMutability": "payable",
      "type": "function"
    },
    {
      "inputs": [],
      "name": "owner",
      "outputs": [
        {
          "internalType": "address",
          "name": "",
          "type": "address"
        }
      ],
      "stateMutability": "view",
      "type": "function"
    },
    {
      "inputs": [],
      "name": "renounceOwnership",
      "outputs": [],
      "stateMutability": "nonpayable",
      "type": "function"
    },
    {
      "inputs": [
        {
          "internalType": "address",
          "name": "tokenIn",
          "type": "address"
        },
        {
          "internalType": "address",
          "name": "tokenOut",
          "type": "address"
        },
        {
          "internalType": "uint256",
          "name": "rateE18",
          "type": "uint256"
        }
      ],
      "name": "setExchangeRate",
      "outputs": [],
      "stateMutability": "nonpayable",
      "type": "function"
    },
    {
      "inputs": [
        {
          "internalType": "address",
          "name": "newOwner",
          "type": "address"
        }
      ],
      "name": "transferOwnership",
      "outputs": [],
      "stateMutability": "nonpayable",
      "type": "function"
    },
    {
      "inputs": [
        {
          "internalType": "address",
          "name": "token",
          "type": "address"
        },
        {
          "internalType": "uint256",
          "name": "amount",
          "type": "uint256"
        }
      ],
      "name": "withdrawToken",
      "outputs": [],
      "stateMutability": "nonpayable",
      "type": "function"
    }
  ],
  "transactionHash": "0x08d7bc209a900fdb2e06b5a57c5f414e65430476adf74efd4969f7774ca38953",
  "args": [],
  "numDeployments": 1,
  "solcInputHash": "41a2120003e0b944125caacedf98df87",
  "bytecode": "0x608060405234801561001057600080fd5b50338061003757604051631e4fbdf760e01b81526000600482015260240160405180910390fd5b61004081610046565b50610096565b600080546001600160a01b038381166001600160a01b0319831681178455604051919092169283917f8be0079c531659141344cd1fd0a4f28419497f9722a3daafe3b4186f6b6457e09190a35050565b610d9a806100a56000396000f3fe6080604052600436106100705760003560e01c8063782aaeea1161004e578063782aaeea146100ea5780638da5cb5b1461010a5780639e281a9814610132578063f2fde38b1461015257600080fd5b806324856bc314610075578063503fa44f1461008a578063715018a6146100d5575b600080fd5b610088610083366004610938565b610172565b005b34801561009657600080fd5b506100c26100a5366004610a12565b600160209081526000928352604080842090915290825290205481565b6040519081526020015b60405180910390f35b3480156100e157600080fd5b50610088610274565b3480156100f657600080fd5b50610088610105366004610a4b565b610288565b34801561011657600080fd5b506000546040516001600160a01b0390911681526020016100cc565b34801561013e57600080fd5b5061008861014d366004610a8c565b6102f1565b34801561015e57600080fd5b5061008861016d366004610ab8565b610323565b8281146101b85760405162461bcd60e51b815260206004820152600f60248201526e098cadccee8d040dad2e6dac2e8c6d608b1b60448201526064015b60405180910390fd5b60005b8381101561026d5760008585838181106101d7576101d7610ad5565b919091013560f81c915050600081900361021c5761021784848481811061020057610200610ad5565b90506020028101906102129190610aeb565b610361565b61025a565b60405162461bcd60e51b8152602060048201526013602482015272155b9cdd5c1c1bdc9d19590818dbdb5b585b99606a1b60448201526064016101af565b508061026581610b4f565b9150506101bb565b5050505050565b61027c61058a565b61028660006105b7565b565b61029061058a565b6001600160a01b0383811660008181526001602090815260408083209487168084529482529182902085905590518481527ffda5f3c763773db764875ece48aacb54b5cb44dc12489b81299f3c49bf6bc81d910160405180910390a3505050565b6102f961058a565b61031f61030e6000546001600160a01b031690565b6001600160a01b0384169083610607565b5050565b61032b61058a565b6001600160a01b03811661035557604051631e4fbdf760e01b8152600060048201526024016101af565b61035e816105b7565b50565b60008080808061037386880188610b68565b94509450945094509450600083116103bb5760405162461bcd60e51b815260206004820152600b60248201526a16995c9bc8185b5bdd5b9d60aa1b60448201526064016101af565b6001600160a01b038086166000908152600160209081526040808320938816835292905220546104255760405162461bcd60e51b8152602060048201526015602482015274115e18da185b99d9481c985d19481b9bdd081cd95d605a1b60448201526064016101af565b61043a6001600160a01b03861633308661066b565b6000610445866106aa565b90506000610452866106aa565b9050600061046183600a610cab565b61047390670de0b6b3a7640000610cb7565b61047e83600a610cab565b6001600160a01b03808b166000908152600160209081526040808320938d16835292905220546104ae9089610cb7565b6104b89190610cb7565b6104c29190610cce565b9050848110156105145760405162461bcd60e51b815260206004820152601a60248201527f496e73756666696369656e74206f757470757420616d6f756e7400000000000060448201526064016101af565b6105286001600160a01b0388168583610607565b866001600160a01b0316886001600160a01b03167fdd36740e2a012d93061a0d99eaa9107860955de4e90027d3cf465a055026c4078884604051610576929190918252602082015260400190565b60405180910390a350505050505050505050565b6000546001600160a01b031633146102865760405163118cdaa760e01b81523360048201526024016101af565b600080546001600160a01b038381166001600160a01b0319831681178455604051919092169283917f8be0079c531659141344cd1fd0a4f28419497f9722a3daafe3b4186f6b6457e09190a35050565b6040516001600160a01b0383811660248301526044820183905261066691859182169063a9059cbb906064015b604051602081830303815290604052915060e01b6020820180516001600160e01b03838183161783525050505061079a565b505050565b6040516001600160a01b0384811660248301528381166044830152606482018390526106a49186918216906323b872dd90608401610634565b50505050565b60408051600481526024810182526020810180516001600160e01b031663313ce56760e01b1790529051600091829182916001600160a01b038616916106f09190610cf0565b600060405180830381855afa9150503d806000811461072b576040519150601f19603f3d011682016040523d82523d6000602084013e610730565b606091505b50915091508161077b5760405162461bcd60e51b81526020600482015260166024820152754661696c656420746f2067657420646563696d616c7360501b60448201526064016101af565b8080602001905181019061078f9190610d1f565b60ff16949350505050565b60006107af6001600160a01b038416836107fd565b905080516000141580156107d45750808060200190518101906107d29190610d42565b155b1561066657604051635274afe760e01b81526001600160a01b03841660048201526024016101af565b606061080b83836000610814565b90505b92915050565b6060814710156108395760405163cd78605960e01b81523060048201526024016101af565b600080856001600160a01b031684866040516108559190610cf0565b60006040518083038185875af1925050503d8060008114610892576040519150601f19603f3d011682016040523d82523d6000602084013e610897565b606091505b50915091506108a78683836108b3565b925050505b9392505050565b6060826108c8576108c38261090f565b6108ac565b81511580156108df57506001600160a01b0384163b155b1561090857604051639996b31560e01b81526001600160a01b03851660048201526024016101af565b50806108ac565b80511561091f5780518082602001fd5b604051630a12f52160e11b815260040160405180910390fd5b6000806000806040858703121561094e57600080fd5b843567ffffffffffffffff8082111561096657600080fd5b818701915087601f83011261097a57600080fd5b81358181111561098957600080fd5b88602082850101111561099b57600080fd5b6020928301965094509086013590808211156109b657600080fd5b818701915087601f8301126109ca57600080fd5b8135818111156109d957600080fd5b8860208260051b85010111156109ee57600080fd5b95989497505060200194505050565b6001600160a01b038116811461035e57600080fd5b60008060408385031215610a2557600080fd5b8235610a30816109fd565b91506020830135610a40816109fd565b809150509250929050565b600080600060608486031215610a6057600080fd5b8335610a6b816109fd565b92506020840135610a7b816109fd565b929592945050506040919091013590565b60008060408385031215610a9f57600080fd5b8235610aaa816109fd565b946020939093013593505050565b600060208284031215610aca57600080fd5b81356108ac816109fd565b634e487b7160e01b600052603260045260246000fd5b6000808335601e19843603018112610b0257600080fd5b83018035915067ffffffffffffffff821115610b1d57600080fd5b602001915036819003821315610b3257600080fd5b9250929050565b634e487b7160e01b600052601160045260246000fd5b600060018201610b6157610b61610b39565b5060010190565b600080600080600060a08688031215610b8057600080fd5b8535610b8b816109fd565b94506020860135610b9b816109fd565b935060408601359250606086013591506080860135610bb9816109fd565b809150509295509295909350565b600181815b80851115610c02578160001904821115610be857610be8610b39565b80851615610bf557918102915b93841c9390800290610bcc565b509250929050565b600082610c195750600161080e565b81610c265750600061080e565b8160018114610c3c5760028114610c4657610c62565b600191505061080e565b60ff841115610c5757610c57610b39565b50506001821b61080e565b5060208310610133831016604e8410600b8410161715610c85575081810a61080e565b610c8f8383610bc7565b8060001904821115610ca357610ca3610b39565b029392505050565b600061080b8383610c0a565b808202811582820484141761080e5761080e610b39565b600082610ceb57634e487b7160e01b600052601260045260246000fd5b500490565b6000825160005b81811015610d115760208186018101518583015201610cf7565b506000920191825250919050565b600060208284031215610d3157600080fd5b815160ff811681146108ac57600080fd5b600060208284031215610d5457600080fd5b815180151581146108ac57600080fdfea2646970667358221220bc269e9d5a43aa195d50f171a461e24ed8655b8d68064379a30c2751673d7ed364736f6c63430008140033",
  "devdoc": {
    "errors": {
      "AddressEmptyCode(address)": [
        {
          "details": "There's no code at `target` (it is not a contract)."
        }
      ],
      "AddressInsufficientBalance(address)": [
        {
          "details": "The ETH balance of the account is not enough to perform the operation."
        }
      ],
      "FailedInnerCall()": [
        {
          "details": "A call to an address target failed. The target may have reverted."
        }
      ],
      "OwnableInvalidOwner(address)": [
        {
          "details": "The owner is not a valid owner account. (eg. `address(0)`)"
        }
      ],
      "OwnableUnauthorizedAccount(address)": [
        {
          "details": "The caller account is not authorized to perform an operation."
        }
      ],
      "SafeERC20FailedOperation(address)": [
        {
          "details": "An operation with an ERC20 token failed."
        }
      ]
    },
    "kind": "dev",
    "methods": {
      "owner()": {
        "details": "Returns the address of the current owner."
      },
      "renounceOwnership()": {
        "details": "Leaves the contract without owner. It will not be possible to call `onlyOwner` functions. Can only be called by the current owner. NOTE: Renouncing ownership will leave the contract without an owner, thereby disabling any functionality that is only available to the owner."
      },
      "transferOwnership(address)": {
        "details": "Transfers ownership of the contract to a new account (`newOwner`). Can only be called by the current owner."
      }
    },
    "version": 1
  },
  "userdoc": {
    "kind": "user",
    "methods": {},
    "version": 1
  },
  "storageLayout": {
    "storage": [
      {
        "astId": 8,
        "contract": "contracts/MockUniversalRouter.sol:MockUniversalRouter",
        "label": "_owner",
        "offset": 0,
        "slot": "0",
        "type": "t_address"
      },
      {
        "astId": 851,
        "contract": "contracts/MockUniversalRouter.sol:MockUniversalRouter",
        "label": "exchangeRates",
        "offset": 0,
        "slot": "1",
        "type": "t_mapping(t_address,t_mapping(t_address,t_uint256))"
      }
    ],
    "types": {
      "t_address": {
        "encoding": "inplace",
        "label": "address",
        "numberOfBytes": "20"
      },
      "t_mapping(t_address,t_mapping(t_address,t_uint256))": {
        "encoding": "mapping",
        "key": "t_address",
        "label": "mapping(address => mapping(address => uint256))",
        "numberOfBytes": "32",
        "value": "t_mapping(t_address,t_uint256)"
      },
      "t_mapping(t_address,t_uint256)": {
        "encoding": "mapping",
        "key": "t_address",
        "label": "mapping(address => uint256)",
        "numberOfBytes": "32",
        "value": "t_uint256"
      },
      "t_uint256": {
        "encoding": "inplace",
        "label": "uint256",
        "numberOfBytes": "32"
      }
    }
  }
}